:107E000001C0B2C011248FE598E09EBF8DBF84B73A
:107E1000882361F0982F9A70923041F081FF02C060
:107E200097EF94BF282E80E0BAD0EAC085E08EBDDF
:107E300082E08BB988E18AB986E880BD89E189B999
:107E40008EE0ADD0B89A84E02CE03FEF44E051E002
:107E50003DBD2CBD48BF08B602FEFDCF98B39527A7
:107E600098BBA8955F9902C0815091F791D0813459
:107E700079F48ED0182F97D0123811F480E004C016
:107E800088E0113809F083E07FD080E17DD0EECF2B
:107E9000823419F484E18FD0F8CF853411F485E071
:107EA000FACF853541F474D0C82F72D0D82FCC0FBB
:107EB000DD1F79D0EACF863519F484E07CD0DECF9F
:107EC000843699F565D064D0182F62D0D82E012F52
:107ED00090E6E92EF12C57018FEFA81AB80A58D076
:107EE000F701808301507501B1F75DD0F5E4DF1231
:107EF00001C0FFCF50E040E063E0CE0135D07E010D
:107F000080E6C82ED12CF601419151916F0161E0BC
:107F1000C7012AD0F2E0EF0EF11C1250A1F750E099
:107F200040E065E0CE0120D0B0CF843771F430D08E
:107F30002FD0F82E2DD037D08E01F80185918F01EA
:107F400023D0FA94F110F9CFA0CF853739F42BD094
:107F50008EE11AD085E918D082E096CF813509F0FC
:107F6000A8CF88E01CD0A5CFFC010A0167BFE89527
:107F7000112407B600FCFDCF667029F0452B19F4DB
:107F800081E187BFE89508955D9BFECF8CB9089588
:107F90005F9BFECF5C9901C0A8958CB1089598E1D4
:107FA00091BD81BD0895F4DF803219F088E0F7DFDC
:107FB000FFCF84E1E9CFCF93C82FEADFC150E9F7C3
:047FC000CF91F1CF9D
:027FFE00000879
:0400000300007E007B
:00000001FF
