:100E8000112424B614BE80E076D021FED2C08EE0BC
:100E900072D0E0ECF0E0AFE7BFEF4899FECF90965C
:100EA000489BFDCFB4831197F1F7B2E0B083B8E16E
:100EB000B1834FD0C82F823561F463D0E0E4FEE007
:100EC000A89583E08ED0E054F109D0F783E43AD0BE
:100ED000F0CF8D7FD1F44AD0D82FA0E0B1E039D047
:100EE0008D93DA13FCCFA0E0B1E04BD0C1110BC061
:100EF000E1BD8D9180BDFA9AF99A3196F999FECFAC
:100F0000D150B1F7E3CF47D0E1CFC33041F42ED079
:100F1000C82F37D0859116D0C150E1F7D7CFC13057
:100F200059F424D0C82F2DD0E1BDF89A80B50AD04D
:100F30003196C150C9F7CACFC13511F488E01BD032
:100F400020D0C4CF9091C00095FFFCCF8093C60005
:100F500008952D9A259A8091C00087FFFCCF84FDCB
:100F600013C0A8958091C6002D980895F2DFE82F50
:100F7000F0DFF82FEECF98E190936000809360004F
:100F80000895E7DF803219F088E0F5DFFFCF80EACF
:100F9000D9CFFB01DC01E07C70E47A0F9F01E038DF
:100FA0008EE0F80718F5309629F48FE38D938FECD7
:100FB0008C93119790E045915D9145139160A71333
:100FC000FACFF901A054B10990FF10C083E009D015
:100FD00081E00D901D9005D03296A713FACFF9014C
:100FE00085E087BFE89517B610FCFDCF1124089562
:060FFA000619CACFE74012
:0400000300000E806B
:00000001FF
