:103F0000112424B614BE80E04ED021FE79C08EE08C
:103F10004AD0E0ECF0E0AFE7BFEF4899FECF9096D3
:103F2000489BFDCFB4831197F1F7B2E0B083B8E1BD
:103F3000B18327D0823069F431D0382FA0E0B1E0CE
:103F400020D08D933A13FCCF34D0A0E0B1E03BD029
:103F50000EC0833041F422D0C82F2BD085910AD0D7
:103F6000C150E1F704C0823008F426C022D086E6B2
:103F700001D0DFCF9091C00095FFFCCF8093C600A9
:103F800008952D9A259A8091C00087FFFCCF84FD6B
:103F900013C0A8958091C6002D980895F2DFE82FF0
:103FA000F0DFF82FEECF98E19093600080936000EF
:103FB0000895E7DF803219F088E0F5DFFFCF80E277
:103FC000D9CFFB01DC0160E86A0F9F01FF3390F459
:103FD00083E00BD081E00D901D9007D03296A613A0
:103FE000FACFF90185E001D081E187BFE89507B6F6
:083FF00000FCFDCF112408952F
:063FFA000200E2CFA03F2F
:0400000300003F00BA
:00000001FF
