:101EC00011248FE594E09EBF8DBF24B614BE80E040
:101ED00064D021FEA7C08EE060D0AFE7BFEF80994D
:101EE000FECF9096809BFDCFB9B91197F1F782E0B4
:101EF0008BB988E18AB942D0C82F8D7FE9F448D0E8
:101F0000D82FA0E0B1E03AD08D93DA13FCCFA0E057
:101F1000B1E047D0C1110EC0FFBBEEBB8D918DBBB0
:101F2000E29AE19A3196E199FECFD150A9F78EE27B
:101F300021D0E1CF40D0FBCFC33041F429D0C82F0E
:101F400030D0859117D0C150E1F7F1CFC13061F4A5
:101F50001FD0C82F26D0FFBBEEBBE09A8DB30AD0AE
:101F60003196C150C1F7E3CFC13511F488E015D0E7
:101F700018D0DDCF5D9BFECF8CB90895C59ABD9A70
:101F80005F9BFECF5C9910C0A8958CB1C598089551
:101F9000F5DFE82FF3DFF82FF1CF98E191BD81BD98
:101FA0000895ECDF803219F088E0F7DFFFCF80E2A0
:101FB000E1CFFB01DC01E07C70E47A0FE03C8EE1D4
:101FC000F807C8F4309629F48FE58D938FEC8C9345
:101FD000119783E00BD081E00D901D9007D03296D1
:101FE000A713FACF329785E001D081E187BFE8954A
:0A1FF00017B610FCFDCF1124089570
:061FFA000512DACFC6401B
:0400000300001EC01B
:00000001FF
