:101EC00011248FE594E09EBF8DBF24B614BE80E040
:101ED00055D021FEA7C08EE051D0AFE7BFEF80996B
:101EE000FECF9096809BFDCFB9B91197F1F782E0B4
:101EF0008BB988E18AB933D0823569F443D0E0E800
:101F0000FEE1A89583E070D06ED0E054F109C8F7E7
:101F10008DE221D0F0CF823059F42BD0A0E0B1E097
:101F20001ED08D93A034E1F7A0E02CD035D0F0CFB7
:101F3000833041F41ED0C82F25D085910CD0C150DC
:101F4000E1F7E6CF813521F488E018D01BD0E0CF4F
:101F50008230E0F71AC05D9BFECF8CB90895C59A18
:101F6000BD9A5F9BFECF5C9910C0A8958CB1C598B7
:101F70000895F5DFE82FF3DFF82FF1CF98E191BD59
:101F800081BD0895ECDF803219F088E0F7DFFFCFE4
:101F900080EAE1CFFB01DC01E07C70E47A0F9F0175
:101FA000E03C8EE1F80728F5309629F48FE58D9313
:101FB0008FEC8C93119790E045915D914513916062
:101FC000A713FACFF901A054B10990FF12C083E022
:101FD0000BD081E00D901D9007D03296A713FACF59
:101FE000F90185E001D081E187BFE89517B610FCC3
:061FF000FDCF112408954D
:061FFA000512CBCFA74049
:0400000300001EC01B
:00000001FF
