:100F000011248FEF92E09EBF8DBF24B614BE80E007
:100F100053D021FE8EC08EE04FD0E0ECF0E0AFE782
:100F2000BFEF4899FECF9096489BFDCFB4831197B1
:100F3000F1F7B2E0B083B8E1B18327D0823069F431
:100F400031D0382FA0E0B1E020D08D933A13FCCF00
:100F50002ED0A0E0B1E038D00EC0833041F422D0D2
:100F6000C82F25D085910AD0C150E1F704C0823046
:100F700008F4FFCF1CD088E401D0DFCF9091C000EF
:100F800095FFFCCF8093C60008952D9A259A8091F5
:100F9000C00087FFFCCF84FDFFCFA8958091C600DD
:100FA0002D980895F2DFE82FF0DFF82FEECFEDDF78
:100FB0008032F9F780E2E2CF98E19093600080936D
:100FC00060000895FB01DC0160E46A0F9F01FF30BF
:100FD00090F483E00BD081E00D901D9007D0329605
:100FE000A613FACFF90185E001D081E187BFE8952A
:0A0FF00007B600FCFDCF11240895A0
:060FFA000419E3CFA43F3F
:0400000300000F00EA
:00000001FF
