:103E000001C0B4C01F92CDB7DEB711248FE594E096
:103E10009EBF8DBF84B7882349F0982F9A70923047
:103E200029F081FF02C097EF94BFCED085E08EBD10
:103E300082E08BB998E19AB996E890BD89B98EE095
:103E4000B0D0B89A84E044E25DEF34E021E05DBD9B
:103E50004CBD38BF08B602FEFDCF98B3922798BB81
:103E6000A8958150A1F7A12CB12C94D08134B9F43C
:103E700091D089839AD08981823811F482E00DC073
:103E8000813851F486E009C0853709F067C08DD0CC
:103E90008EE17CD084E97AD083E078D064C082342B
:103EA00011F484E103C0853419F485E086D05BC049
:103EB000853549F46FD0182F6DD0A12EB12CB82ABA
:103EC000AA0CBB1C4FC0863521F484E076D080E07C
:103ED000E4CF843699F55ED05DD0182F5BD0082FE3
:103EE00080E6C82ED12C90E6F92EF10E53D0F601C3
:103EF00081936F01FE12FACF58D0053409F4FFCF39
:103F000040E050E063E0C50131D0650100E610E01B
:103F1000F80140810E5F1F4F3196808150E0582B91
:103F200061E0C60123D0F2E0CF0ED11CF012F0CF39
:103F300040E050E065E0C50119D015C0843709F0B4
:103F4000A3CF28D027D0182F25D02FD07501F70167
:103F500085917F011BD01150D1F705C0813511F437
:103F600088E01FD022D080E111D07FCFFC010A0170
:103F700067BFE895112407B600FCFDCF667029F0F5
:103F8000452B19F481E187BFE89508955D9BFECF2D
:103F90008CB908955F9BFECF5C9901C0A8958CB148
:103FA000089598E191BD81BD0895F4DF803219F044
:103FB00088E0F7DFFFCF84E1E9CFCF93C82FEADFB6
:103FC000C150E9F7CF91F1CF282E80E0EADFE0E0A1
:043FD000FF2709942A
:023FFE000206B9
:0400000300003E00BB
:00000001FF
