:103E800011248FEF94E09EBF8DBF24B614BE80E056
:103E900079D021FEE7C08EE075D0E0ECF0E0AFE72E
:103EA000BFEF4899FECF9096489BFDCFB483119702
:103EB000F1F7B2E0B083B8E1B18352D0C82F8235B8
:103EC00069F466D0E0E0FEE3A89583E086D084D074
:103ED000E058F109C8F787E63CD0EFCF8D7FD9F4E1
:103EE0004CD0D82FA0E0B1E03BD08D93DA13FCCFBB
:103EF000A0E0B1E04DD0C1110CC0F2BDE1BD8D918B
:103F000080BDFA9AF99A3196F999FECFD150A9F766
:103F1000E2CF48D0E0CFC33041F42FD0C82F38D003
:103F2000859117D0C150E1F7D6CFC13061F425D0CB
:103F3000C82F2ED0F2BDE1BDF89A80B50AD03196D7
:103F4000C150C1F7C8CFC13511F488E01BD020D0D3
:103F5000C2CF9091C00095FFFCCF8093C60008951A
:103F60002D9A259A8091C00087FFFCCF84FD13C055
:103F7000A8958091C6002D980895F2DFE82FF0DF14
:103F8000F82FEECF98E19093600080936000089541
:103F9000E7DF803219F088E0F5DFFFCF80EAD9CF84
:103FA000FB01DC01E07870E87A0FE0388EE3F80777
:103FB000C8F4309629F48FE38D938FEC8C9311978E
:103FC00083E00BD081E00D901D9007D03296A713AF
:103FD000FACF329785E001D081E187BFE89517B627
:083FE00010FCFDCF112408952F
:063FFA000319D1CFC740FE
:0400000300003E803B
:00000001FF
