:100EC000112424B614BE80E05DD021FEB2C08EE0B5
:100ED00059D0E0ECF0E0AFE7BFEF4899FECF909635
:100EE000489BFDCFB4831197F1F7B2E0B083B8E12E
:100EF000B18336D0823569F44BD0E0E8FEE0A895A6
:100F000083E06BD069D0E054F109C8F785E421D0C3
:100F1000F0CF823059F431D0A0E0B1E021D08D93F0
:100F2000A034E1F7A0E034D03DD0F0CF833041F4DD
:100F300024D0C82F2DD085910CD0C150E1F7E6CF39
:100F4000813521F488E01ED023D0E0CF8230E0F755
:100F500022C09091C00095FFFCCF8093C6000895F9
:100F60002D9A259A8091C00087FFFCCF84FD13C085
:100F7000A8958091C6002D980895F2DFE82FF0DF44
:100F8000F82FEECF98E19093600080936000089571
:100F9000E7DF803219F088E0F5DFFFCF80EAD9CFB4
:100FA000FB01DC01E07C70E47A0FE03C8EE0F807A6
:100FB000C8F4309629F48FE58D938FEC8C931197BC
:100FC00083E00BD081E00D901D9007D03296A713DF
:100FD000FACF329785E001D081E187BFE89517B657
:080FE00010FCFDCF112408955F
:060FFA000519D1CF87406C
:0400000300000EC02B
:00000001FF
