:100F000011248FEF92E09EBF8DBF24B614BE80E007
:100F10004CD021FE8EC08EE048D0E0ECF0E0AFE790
:100F2000BFEF4899FECF9096489BFDCFB4831197B1
:100F3000F1F7B2E0B083B8E1B18324D0823069F434
:100F40002AD0A0E0B1E01ED08D93A034E1F7A0E05C
:100F500027D033D088E40FD0F0CF833041F41BD0BA
:100F6000C82F1ED0859107D0C150E1F7F3CF823052
:100F7000F0F316D0EFCF9091C00095FFFCCF809397
:100F8000C60008958091C00087FFFCCF84FFA8951C
:100F90008091C6000895F6DFE82FF4DFF82FF2CF36
:100FA000F1DF8032F9F780E2E6CF98E190936000BC
:100FB000809360000895FB01DC01E07C70E47A0F0F
:100FC000FF30C8F4309629F48FE78D938FEC8C9323
:100FD000119783E00BD081E00D901D9007D03296E1
:100FE000A713FACF329785E001D081E187BFE8955A
:0A0FF00017B610FCFDCF1124089580
:060FFA000419DCCF864063
:0400000300000F00EA
:00000001FF
