:10FC000001C0D5C011248FEF90E19EBF8DBF84B796
:10FC1000882361F0982F9A70923041F081FF02C0E2
:10FC200097EF94BF282E80E0E0D0EAC185E08EBD3A
:10FC300082E08BB998E19AB989B986E08093950002
:10FC40008EE0D3D0BD9A84E028E43AEF44E050E25D
:10FC50003DBD2CBD46BF06B602FEFDCF98B395272D
:10FC600098BBA8955F9902C0815091F7B7D08134B5
:10FC700061F4B4D0C82FBDD0C238E9F0C13811F456
:10FC800088E001C083E0A6D08FC0823411F484E103
:10FC900003C0853419F485E0B4D086C0853539F4C5
:10FCA0009DD0082F9BD0182F000F111F7CC08635C8
:10FCB00021F484E0A6D080E0E6CF843609F045C088
:10FCC0008DD0C82FD0E0DC2FCC2788D0C82B86D091
:10FCD000B82E7E01C12CDD24D39480D0F60181930F
:10FCE0006F01F1E0EF1AF108C1F783D085E4B81293
:10FCF00010C06E01D3947801C0E0D1E0CC16DD06CF
:10FD000009F452C06991C7018BD0FFEFEF1AFF0AC7
:10FD1000F5CF40E050E063E0C80149D07801C12C44
:10FD2000DD24D394F601419151916F0161E0C70147
:10FD30003ED02297F2E0EF0EF11C209799F740E0B9
:10FD400050E065E0C80133D02FC08437F9F446D0C5
:10FD5000C82FD0E0DC2FCC2741D0C82B3FD0D82EE5
:10FD600048D0780185E4D8120AC0C70151D032D0FA
:10FD70002197EFEFEE1AFE0A2097B9F715C0F701A9
:10FD800085917F0127D02197D1F70EC0853739F4AF
:10FD900030D08EE11FD086E91DD082E074CF81354E
:10FDA00011F488E022D025D080E114D05FCFFC018F
:10FDB0000A0160936800E89511248091680080FD35
:10FDC000FCCF667031F0452B21F481E1809368000F
:10FDD000E89508955D9BFECF8CB908955F9BFECF9B
:10FDE0005C9901C0A8958CB1089598E191BD81BD41
:10FDF0000895F4DF803219F088E0F7DFFFCF84E167
:10FE0000E9CFCF93C82FEADFC150E9F7CF91F1CF07
:10FE1000E199FECF9FBB8EBBE09A99278DB30895E1
:10FE2000262FE199FECF9FBB8EBB2DBB0FB6F8945A
:0AFE3000E29AE19A0FBE01960895D0
:02FFFE000008F9
:040000030000FC00FD
:00000001FF
