:103E000001C0AFC011248FE594E09EBF8DBF84B781
:103E1000882361F0982F9A70923041F081FF02C0A0
:103E200097EF94BF282E80E0B7D0EAC085E08EBD22
:103E300092E09BB998E19AB996E890BD89B98EE075
:103E4000ABD0BF9A84E02DE53DEF44E03DBD2CBDF5
:103E500048BF08B602FEFDCF98B3905898BBA8950E
:103E60005F9902C0815091F790D0813479F48DD060
:103E7000182F96D0123811F480E004C088E0113871
:103E800009F083E07ED080E17CD0EECF823419F45B
:103E900084E18ED0F8CF853411F485E0FACF8535F2
:103EA00041F473D0C82F71D0D82FCC0FDD1F78D03C
:103EB000EACF863519F484E07BD0DECF843699F5DD
:103EC00064D063D0182F61D0D82E012F90E6E92E50
:103ED000F12C57018FEFA81AB80A57D0F701808349
:103EE00001507501B1F75CD0F5E4DF1201C0FFCFDE
:103EF00050E040E063E0CE0134D07E0180E6C82E81
:103F0000D12CF601419151916F0161E0C70129D097
:103F1000F2E0EF0EF11C1250A1F750E040E065E036
:103F2000CE011FD0B0CF843771F42FD02ED0F82E11
:103F30002CD036D08E01F80185918F0122D0FA94D1
:103F4000F110F9CFA0CF853731F42AD08EE119D006
:103F500084E917D096CF813509F0A9CF88E01CD02D
:103F6000A6CFFC010A0167BFE895112407B600FC43
:103F7000FDCF667029F0452B19F481E187BFE895E4
:103F800008955D9BFECF8CB908955F9BFECF5C9931
:103F900001C0A8958CB1089598E191BD81BD0895A7
:103FA000F4DF803219F088E0F7DFFFCF84E1E9CF5A
:0E3FB000CF93C82FEADFC150E9F7CF91F1CFD0
:023FFE000008B9
:0400000300003E00BB
:00000001FF
