:10FC000001C0E5C01F92CDB7DEB711248FEF90E1A0
:10FC10009EBF8DBF84B7882349F0982F9A70923089
:10FC200029F081FF02C097EF94BF0AD185E08EBD15
:10FC300082E080939B0088E180939A0086E0809325
:10FC40009D0083E0809399008EE0E7D0BD9A84E028
:10FC500048E15EEF34E020E25DBD4CBD36BF06B644
:10FC600002FEFDCF98B3922798BBA8958150A1F7CB
:10FC7000812C912CC6D0813471F4C3D08983D1D02A
:10FC80008981823809F499C0813811F486E001C075
:10FC900083E0B0D099C0823411F484E103C085348C
:10FCA00019F485E0C6D090C0853549F4AAD0182F44
:10FCB000A8D0812E912C982A880C991C84C0863556
:10FCC00021F484E0B6D080E0E4CF843609F04AC065
:10FCD00098D0082F10E0102F002793D0082B91D038
:10FCE000B82E7801C12CDD24D3948BD0F6018193FA
:10FCF0006F01F1E0EF1AF108C1F793D085E4B81273
:10FD000012C06801D394740100E011E00C151D05C8
:10FD100009F45AC0F80161918F01C7019FD0FFEF2C
:10FD2000EF1AFF0AF3CF40E050E063E0C4014FD088
:10FD3000E12CF12CF701F39540813196808150E060
:10FD4000582B61E0C701880D991D41D082E0E80E73
:10FD5000F11C0E151F0571F740E050E065E0C4018D
:10FD600036D032C0843711F54CD0082F10E0102F58
:10FD7000002747D0082B45D0898353D0898174014F
:10FD8000853461F4C70162D035D001501109EFEF1D
:10FD9000EE1AFE0A01151105A9F716C0F7018591A3
:10FDA0007F0128D001501109C9F70EC0853739F4F9
:10FDB00038D08EE11FD086E91DD082E06ACF813530
:10FDC00011F488E02AD02DD080E114D053CFFC016B
:10FDD0000A0160936800E89511248091680080FD15
:10FDE000FCCF667031F0452B21F481E180936800EF
:10FDF000E895089590919B0095FFFCCF80939C001F
:10FE0000089580919B0087FFFCCF80919B0084FD2B
:10FE100001C0A89580919C00089598E191BD81BD95
:10FE20000895EFDF803219F088E0F7DFFFCF84E13B
:10FE3000E1CFCF93C82FE5DFC150E9F7CF91F1CFE4
:10FE4000282E80E0EADFE0E0FF270994F999FECF51
:10FE500092BD81BDF89A992780B50895262FF9990A
:10FE6000FECF92BD81BD20BD0FB6F894FA9AF99AE3
:06FE70000FBE019608958B
:02FFFE000206F9
:040000030000FC00FD
:00000001FF
