:020000023000CC
:10FC000001C0EDC0112484B7882369F0982F9A7041
:10FC1000923049F081FF02C097EF94BF282E80E018
:10FC200001D10C94000085E08093810082E08093F4
:10FC3000D00098E19093D1008093D40086E0809327
:10FC4000D2008EE0EFD0279A84E028E43AEF91E0EA
:10FC5000309385002093840096BBB09BFECF1F9A03
:10FC6000A8954091D00047FD02C0815089F7CED0C1
:10FC7000813479F4CBD0C82FDBD0C23811F480E0C6
:10FC800004C088E0C13809F083E0B9D080E1B7D082
:10FC9000EECF823419F484E1D3D0F8CF853411F457
:10FCA00085E0FACF853581F4B1D0E82EAFD0F82EBB
:10FCB00087FF07C08BB781608BBFEE0CFF1CB8D0ED
:10FCC000E5CF8BB78E7FF8CF863579F49FD08D3412
:10FCD00051F49CD0CBB79AD0C170880F8C2B8BBFBE
:10FCE00081E0AED0CCCF83E0FCCF843609F046C0B3
:10FCF0008DD0C82FD0E0DC2FCC2788D0C82B86D061
:10FD0000D82E5E018EEFB81A00E012E04801EFEF46
:10FD10008E1A9E0A7BD0F801808384018A149B048A
:10FD2000A9F786D0F5E410E000E0DF1609F150E015
:10FD300040E063E0C70153D08701C12C92E0D92E87
:10FD4000F601419151916F0161E0C80148D00E5F09
:10FD50001F4F2297A9F750E040E065E0C7013FD070
:10FD600095CF6081C8018E0D9F1D79D00F5F1F4F09
:10FD7000F801FE5FC017D107A1F788CF843701F5DE
:10FD800045D0C82FD0E0DC2FCC2740D0C82B3ED0A8
:10FD9000D82E4ED08701F5E4DF120BC0CE0DDF1D4B
:10FDA000C80155D02CD00F5F1F4FC017D107C1F726
:10FDB0006DCFF80187918F0122D02197D1F766CFBF
:10FDC000853739F435D08EE11AD088E918D081E032
:10FDD0005CCF813509F073CF88E024D070CFFC016F
:10FDE0000A0167BFE895112407B600FCFDCF6670D5
:10FDF00029F0452B19F481E187BFE895089590918A
:10FE0000D00095FFFCCF8093D60008958091D0005C
:10FE100087FFFCCF8091D00084FD01C0A895809120
:10FE2000D6000895E0E6F0E098E19083808308959D
:10FE3000EDDF803219F088E0F5DFFFCF84E1DFCF1E
:10FE4000CF93C82FE3DFC150E9F7CF91F1CFF999F4
:10FE5000FECF92BD81BDF89A992780B50895262FCF
:10FE6000F999FECF1FBA92BD81BD20BD0FB6F8949F
:0AFE7000FA9AF99A0FBE0196089560
:02FFFE000008F9
:040000033000FC00CD
:00000001FF
