:100E8000112424B614BE80E079D021FED2C08EE0B9
:100E900075D0E0ECF0E0AFE7BFEF4899FECF909659
:100EA000489BFDCFB4831197F1F7B2E0B083B8E16E
:100EB000B18355D0C82F823559F466D0E0E8FEE002
:100EC000E054F109A89583E084D03097C9F73DC07C
:100ED0008D7FE9F44ED0D82FA0E0B1E040D08D93C3
:100EE000DA13FCCF51D0C1110EC0A0E0B1E0F999E6
:100EF000FECF1FBAE1BD8D9180BDFA9AF99A319665
:100F0000DA13F5CF22C0A0E0B1E048D01EC0C33054
:100F100041F42FD0C82F38D085911AD0C150E1F7B5
:100F200014C0C13069F425D0C82F2ED0F999FECF56
:100F3000E1BDF89A80B50CD03196C150B9F705C023
:100F4000C13511F488E01AD01FD085E401D0B1CFAB
:100F50009091C00095FFFCCF8093C60008958091CA
:100F6000C00087FFFCCF84FD12C0A8958091C60009
:100F70000895F5DFE82FF3DFF82FF1CF98E1909394
:100F80006000809360000895EADF803219F088E005
:100F9000F5DFFFCF80EADCCFFB01DC0160E46A0F04
:100FA0009F01E0388EE0F807C8F483E012D0309655
:100FB00029F48FE38D938FEC8C93119781E00D9042
:100FC0001D9007D03296A613FACFF90185E001D023
:100FD00081E187BFE89507B600FCFDCF1124089595
:060FFA000619CDCFE73F10
:0400000300000E806B
:00000001FF
