:103E000011248FEF94E09EBF8DBF24B614BE80E0D6
:103E100080D021FEF5C08EE07CD0E0ECF0E0AFE792
:103E2000BFEF4899FECF9096489BFDCFB483119782
:103E3000F1F7B2E0B083B8E1B1835CD0C82F82352E
:103E4000B9F46DD0E0E8FDE3A8959F0170E87E0F1E
:103E500065916F3F11F4E713FBCFF90119F083E08F
:103E600091D08FD0E058F10978F787E63CD0E5CFC4
:103E70008D7FD9F449D0D82FA0E0B1E03BD08D930D
:103E8000DA13FCCFA0E0B1E04AD0C1110CC0F2BD02
:103E9000E1BD8D9180BDFA9AF99A3196F999FECFDC
:103EA000D150A9F7E2CF45D0E0CFC33041F42CD0B8
:103EB000C82F35D0859117D0C150E1F7D6CFC1308A
:103EC00061F422D0C82F2BD0F2BDE1BDF89A80B5A5
:103ED0000AD03196C150C1F7C8CFC13511F488E07E
:103EE00018D01DD0C2CF9091C00095FFFCCF809319
:103EF000C60008958091C00087FFFCCF84FD12C0EA
:103F0000A8958091C6000895F5DFE82FF3DFF82F1C
:103F1000F1CF98E190936000809360000895EADF0C
:103F2000803219F088E0F5DFFFCF80EADCCFFB01BB
:103F3000DC01E07870E87A0F9F01FE3340F590E0F5
:103F400045915D91451391605F3F09F09260452373
:103F500045139460A713F4CFF901A058B10990FF5D
:103F600016C092FF04C083E00DD091FF0AC081E02B
:103F70000D901D9007D03296A713FACFF90185E076
:103F800001D081E187BFE89517B610FCFDCF112461
:023F9000089592
:063FFA00040098CFE14035
:0400000300003E00BB
:00000001FF
