:101EC00011248FEF94E09EBF8DBF24B614BE80E036
:101ED0005AD021FEAEC08EE056D0E0ECF0E0AFE785
:101EE000BFEF4899FECF9096489BFDCFB4831197E2
:101EF000F1F7B2E0B083B8E1B18336D0823569F44E
:101F000048D0E0E8FEE1A89583E068D066D0E054D0
:101F1000F109C8F783E521D0F0CF823059F42ED0F3
:101F2000A0E0B1E021D08D93A034E1F7A0E031D062
:101F30003AD0F0CF833041F421D0C82F2AD08591F8
:101F40000CD0C150E1F7E6CF813521F488E01BD0F9
:101F500020D0E0CF8230E0F71FC09091C00095FF05
:101F6000FCCF8093C60008958091C00087FFFCCF0E
:101F700084FD12C0A8958091C6000895F5DFE82F72
:101F8000F3DFF82FF1CF98E1909360008093600029
:101F90000895EADF803219F088E0F5DFFFCF80EAAC
:101FA000DCCFFB01DC01E07C70E47A0FE03C8EE1E9
:101FB000F807C8F4309629F48FE58D938FEC8C9355
:101FC000119783E00BD081E00D901D9007D03296E1
:101FD000A713FACF329785E001D081E187BFE8955A
:0A1FE00017B610FCFDCF1124089580
:061FFA000519D2CF87405B
:0400000300001EC01B
:00000001FF
